{
  "_format": "hh-sol-artifact-1",
  "contractName": "CrowdFunding",
  "sourceName": "contracts/CrowdFunding.sol",
  "abi": [
    {
      "inputs": [
        {
          "internalType": "uint256",
          "name": "",
          "type": "uint256"
        }
      ],
      "name": "campaigns",
      "outputs": [
        {
          "internalType": "address",
          "name": "owner",
          "type": "address"
        },
        {
          "internalType": "string",
          "name": "title",
          "type": "string"
        },
        {
          "internalType": "string",
          "name": "description",
          "type": "string"
        },
        {
          "internalType": "uint256",
          "name": "target",
          "type": "uint256"
        },
        {
          "internalType": "uint256",
          "name": "deadline",
          "type": "uint256"
        },
        {
          "internalType": "uint256",
          "name": "amountCollected",
          "type": "uint256"
        },
        {
          "internalType": "string",
          "name": "image",
          "type": "string"
        }
      ],
      "stateMutability": "view",
      "type": "function"
    },
    {
      "inputs": [
        {
          "internalType": "address",
          "name": "_owner",
          "type": "address"
        },
        {
          "internalType": "string",
          "name": "_title",
          "type": "string"
        },
        {
          "internalType": "string",
          "name": "_description",
          "type": "string"
        },
        {
          "internalType": "uint256",
          "name": "_target",
          "type": "uint256"
        },
        {
          "internalType": "uint256",
          "name": "_deadline",
          "type": "uint256"
        },
        {
          "internalType": "string",
          "name": "_image",
          "type": "string"
        }
      ],
      "name": "createCampaign",
      "outputs": [
        {
          "internalType": "uint256",
          "name": "",
          "type": "uint256"
        }
      ],
      "stateMutability": "nonpayable",
      "type": "function"
    },
    {
      "inputs": [
        {
          "internalType": "uint256",
          "name": "_id",
          "type": "uint256"
        }
      ],
      "name": "donateToCampaign",
      "outputs": [],
      "stateMutability": "payable",
      "type": "function"
    },
    {
      "inputs": [],
      "name": "getCampaigns",
      "outputs": [
        {
          "components": [
            {
              "internalType": "address",
              "name": "owner",
              "type": "address"
            },
            {
              "internalType": "string",
              "name": "title",
              "type": "string"
            },
            {
              "internalType": "string",
              "name": "description",
              "type": "string"
            },
            {
              "internalType": "uint256",
              "name": "target",
              "type": "uint256"
            },
            {
              "internalType": "uint256",
              "name": "deadline",
              "type": "uint256"
            },
            {
              "internalType": "uint256",
              "name": "amountCollected",
              "type": "uint256"
            },
            {
              "internalType": "string",
              "name": "image",
              "type": "string"
            },
            {
              "internalType": "address[]",
              "name": "donators",
              "type": "address[]"
            },
            {
              "internalType": "uint256[]",
              "name": "donations",
              "type": "uint256[]"
            }
          ],
          "internalType": "struct CrowdFunding.Campaign[]",
          "name": "",
          "type": "tuple[]"
        }
      ],
      "stateMutability": "view",
      "type": "function"
    },
    {
      "inputs": [
        {
          "internalType": "uint256",
          "name": "_id",
          "type": "uint256"
        }
      ],
      "name": "getDonators",
      "outputs": [
        {
          "internalType": "address[]",
          "name": "",
          "type": "address[]"
        },
        {
          "internalType": "uint256[]",
          "name": "",
          "type": "uint256[]"
        }
      ],
      "stateMutability": "view",
      "type": "function"
    },
    {
      "inputs": [],
      "name": "numberOfCampaigns",
      "outputs": [
        {
          "internalType": "uint256",
          "name": "",
          "type": "uint256"
        }
      ],
      "stateMutability": "view",
      "type": "function"
    }
  ],
  "bytecode": "0x6080604052600060015534801561001557600080fd5b50610f14806100256000396000f3fe6080604052600436106100555760003560e01c806307ca140d1461005a5780630fa91fa914610083578063141961bc146100b157806342a4fda8146100e45780639943e3a1146100f9578063a6b0363314610119575b600080fd5b34801561006657600080fd5b5061007060015481565b6040519081526020015b60405180910390f35b34801561008f57600080fd5b506100a361009e366004610a02565b61013b565b60405161007a929190610a1b565b3480156100bd57600080fd5b506100d16100cc366004610a02565b61020a565b60405161007a9796959493929190610aec565b6100f76100f2366004610a02565b6103e7565b005b34801561010557600080fd5b50610070610114366004610bf9565b6104a9565b34801561012557600080fd5b5061012e6105bc565b60405161007a9190610d26565b600081815260208181526040918290206007810180548451818502810185019095528085526060948594929360080192909184918301828280156101a857602002820191906000526020600020905b81546001600160a01b0316815260019091019060200180831161018a575b50505050509150808054806020026020016040519081016040528092919081815260200182805480156101fa57602002820191906000526020600020905b8154815260200190600101908083116101e6575b5050505050905091509150915091565b600060208190529081526040902080546001820180546001600160a01b03909216929161023690610e33565b80601f016020809104026020016040519081016040528092919081815260200182805461026290610e33565b80156102af5780601f10610284576101008083540402835291602001916102af565b820191906000526020600020905b81548152906001019060200180831161029257829003601f168201915b5050505050908060020180546102c490610e33565b80601f01602080910402602001604051908101604052809291908181526020018280546102f090610e33565b801561033d5780601f106103125761010080835404028352916020019161033d565b820191906000526020600020905b81548152906001019060200180831161032057829003601f168201915b50505050509080600301549080600401549080600501549080600601805461036490610e33565b80601f016020809104026020016040519081016040528092919081815260200182805461039090610e33565b80156103dd5780601f106103b2576101008083540402835291602001916103dd565b820191906000526020600020905b8154815290600101906020018083116103c057829003601f168201915b5050505050905087565b600081815260208181526040808320600781018054600180820183559186528486200180546001600160a01b0319163317905560088201805491820181558552928420349301839055805491519293909290916001600160a01b03169084908381818185875af1925050503d806000811461047e576040519150601f19603f3d011682016040523d82523d6000602084013e610483565b606091505b5050905080156104a35782826005015461049d9190610e7e565b60058301555b50505050565b6001546000908152602081905260408120600481015442116105245760405162461bcd60e51b815260206004820152602a60248201527f54686520646561646c696e652073686f6c642062652061206461746520696e206044820152697468652066757475726560b01b606482015260840160405180910390fd5b80546001600160a01b0319166001600160a01b038916178155865161055290600183019060208a0190610969565b5085516105689060028301906020890190610969565b506003810185905560048101849055825161058c9060068301906020860190610969565b506001805490600061059d83610e96565b9190505550600180546105b09190610eb1565b98975050505050505050565b6060600060015467ffffffffffffffff8111156105db576105db610b56565b60405190808252806020026020018201604052801561066457816020015b61065160405180610120016040528060006001600160a01b0316815260200160608152602001606081526020016000815260200160008152602001600081526020016060815260200160608152602001606081525090565b8152602001906001900390816105f95790505b50905060005b60015481101561096357600081815260208181526040918290208251610120810190935280546001600160a01b03168352600181018054919392849290840191906106b490610e33565b80601f01602080910402602001604051908101604052809291908181526020018280546106e090610e33565b801561072d5780601f106107025761010080835404028352916020019161072d565b820191906000526020600020905b81548152906001019060200180831161071057829003601f168201915b5050505050815260200160028201805461074690610e33565b80601f016020809104026020016040519081016040528092919081815260200182805461077290610e33565b80156107bf5780601f10610794576101008083540402835291602001916107bf565b820191906000526020600020905b8154815290600101906020018083116107a257829003601f168201915b505050505081526020016003820154815260200160048201548152602001600582015481526020016006820180546107f690610e33565b80601f016020809104026020016040519081016040528092919081815260200182805461082290610e33565b801561086f5780601f106108445761010080835404028352916020019161086f565b820191906000526020600020905b81548152906001019060200180831161085257829003601f168201915b50505050508152602001600782018054806020026020016040519081016040528092919081815260200182805480156108d157602002820191906000526020600020905b81546001600160a01b031681526001909101906020018083116108b3575b505050505081526020016008820180548060200260200160405190810160405280929190818152602001828054801561092957602002820191906000526020600020905b815481526020019060010190808311610915575b50505050508152505083838151811061094457610944610ec8565b602002602001018190525050808061095b90610e96565b91505061066a565b50919050565b82805461097590610e33565b90600052602060002090601f01602090048101928261099757600085556109dd565b82601f106109b057805160ff19168380011785556109dd565b828001600101855582156109dd579182015b828111156109dd5782518255916020019190600101906109c2565b506109e99291506109ed565b5090565b5b808211156109e957600081556001016109ee565b600060208284031215610a1457600080fd5b5035919050565b604080825283519082018190526000906020906060840190828701845b82811015610a5d5781516001600160a01b031684529284019290840190600101610a38565b5050508381038285015284518082528583019183019060005b81811015610a9257835183529284019291840191600101610a76565b5090979650505050505050565b6000815180845260005b81811015610ac557602081850181015186830182015201610aa9565b81811115610ad7576000602083870101525b50601f01601f19169290920160200192915050565b6001600160a01b038816815260e060208201819052600090610b1090830189610a9f565b8281036040840152610b228189610a9f565b90508660608401528560808401528460a084015282810360c0840152610b488185610a9f565b9a9950505050505050505050565b634e487b7160e01b600052604160045260246000fd5b600082601f830112610b7d57600080fd5b813567ffffffffffffffff80821115610b9857610b98610b56565b604051601f8301601f19908116603f01168101908282118183101715610bc057610bc0610b56565b81604052838152866020858801011115610bd957600080fd5b836020870160208301376000602085830101528094505050505092915050565b60008060008060008060c08789031215610c1257600080fd5b86356001600160a01b0381168114610c2957600080fd5b9550602087013567ffffffffffffffff80821115610c4657600080fd5b610c528a838b01610b6c565b96506040890135915080821115610c6857600080fd5b610c748a838b01610b6c565b9550606089013594506080890135935060a0890135915080821115610c9857600080fd5b50610ca589828a01610b6c565b9150509295509295509295565b600081518084526020808501945080840160005b83811015610ceb5781516001600160a01b031687529582019590820190600101610cc6565b509495945050505050565b600081518084526020808501945080840160005b83811015610ceb57815187529582019590820190600101610d0a565b60006020808301818452808551808352604092508286019150828160051b87010184880160005b83811015610e2557888303603f19018552815180516001600160a01b0316845261012088820151818a870152610d8582870182610a9f565b9150508782015185820389870152610d9d8282610a9f565b606084810151908801526080808501519088015260a0808501519088015260c080850151888303828a01529193509150610dd78382610a9f565b9250505060e08083015186830382880152610df28382610cb2565b925050506101008083015192508582038187015250610e118183610cf6565b968901969450505090860190600101610d4d565b509098975050505050505050565b600181811c90821680610e4757607f821691505b6020821081141561096357634e487b7160e01b600052602260045260246000fd5b634e487b7160e01b600052601160045260246000fd5b60008219821115610e9157610e91610e68565b500190565b6000600019821415610eaa57610eaa610e68565b5060010190565b600082821015610ec357610ec3610e68565b500390565b634e487b7160e01b600052603260045260246000fdfea264697066735822122050468828916af3e004043e69012df0e3145103f676356b6ce154869b06bdf31a64736f6c63430008090033",
  "linkReferences": {},
  "deployedLinkReferences": {}
}